:100000000C9468010C9490010C9490010C94900154
:100010000C9490010C9490010C9490010C9490011C
:100020000C9490010C9490010C94450C0C94AE0C23
:100030000C9490010C9490010C9490010C949001FC
:100040000C9490010C9490010C9490010C949001EC
:100050000C9490010C9490010C9490010C949410C9
:100060000C9490010C9490010C9490010C949001CC
:100070000C9490010C9490010C9490010C949001BC
:100080000C9490010C9490010C9490010C949001AC
:100090000C94E3060C9490010C9490010C94900144
:1000A0000C9490010C9490010C949001140F170F74
:1000B000060F0A0F100F380F380F380F1B0F1F0FC6
:1000C000230F290F2D0F380F330F424D5032383088
:1000D0002074657374000100020004000800100021
:1000E0002000400080000001000200040008001011
:1000F0000020004000800000000000000000000020
:10010000000000000000C912C015F912E30030051C
:10011000C812003A0017000006002002CE12ED12AD
:10012000240C5D23000400240009C03FC012000815
:10013000C0000000000C3F0C0600DB008F00E60052
:100140006920FD000700FF00EF000012000A0024F4
:10015000C80000098310BB02F7008F1239000F128C
:10016000F9007100BD00F60000121E007024380076
:10017000360536213F00F3003F20F320ED00011249
:100180003E00300C3628002D0015090C39000021E6
:100190000F00030C0800000158107820D8008E08CA
:1001A000580871008E04701000100E0000363000E8
:1001B000D4105010DC0070018604500088207800B4
:1001C0001C0004201428C0280C20480849090012EB
:1001D00089242005FF3F00000000240027002A009A
:1001E0002D003000080B000202020100090400008B
:1001F0000102020000052400100105240101010490
:1002000024020605240600010705810310004009A9
:10021000040100020A000000070502024000000776
:100220000583024000000403090412010002EF02EA
:1002300001409A230C8000010102030141646166C0
:100240007275697400466561746865722033327531
:100250003400000000002300260029002C002F009D
:100260000000000200090F0000030401000C000060
:10027000000000000000000000000000000000047A
:100280000802011040804010204080408008020495
:10029000018040201002011080102040402000000A
:1002A0000000250028002B002E0031000404040467
:1002B000040304050202020204030202020206060B
:1002C0000606060604040202020404008A1F3F1FF9
:1002D00011241FBECFEFDAE0DEBFCDBF26E0AEEEC9
:1002E000B2E001C01D92A43FB207E1F712E0A0E026
:1002F000B1E0E6E0FFE402C005900D92AE3EB1072A
:10030000D9F711E0C7E6D1E004C02197FE010E94B1
:100310001724C636D107C9F70E94FB180C9476271C
:100320000C94000085ED8093BC008091BC0084FD9E
:10033000FCCF1092BC050895613298F42091BC0561
:10034000243089F460933803282FA8E1B3E0FC013E
:100350008E2F821B861718F481918D93F9CF80E040
:10036000089581E0089582E008950895E091BE0522
:100370008091BD05E81730F4F0E0E154FA4F808138
:1003800090E008958FEF9FEF08959091BE058091C2
:10039000BD05981750F4E92FF0E0E154FA4F2081A1
:1003A00030E09F5F9093BE0502C02FEF3FEFC90181
:1003B00008958091BD0590E02091BE05821B9109B2
:1003C0000895CF92DF92EF92FF920F931F93CF93F6
:1003D000DF937C01CB018A0120917305222389F0F0
:1003E000EB016B01C40ED51ECC15DD0569F06991DA
:1003F000D701ED91FC910190F081E02DC7010995A5
:10040000F3CF642F0E949C01C801DF91CF911F910F
:100410000F91FF90EF90DF90CF900895CF93DF93EF
:100420001F92CDB7DEB76983209173052223D1F0E7
:1004300020919505203240F021E030E0FC0133832B
:10044000228380E090E015C080917405E82FF0E0F1
:10045000EB58FA4F998190838F5F80937405809356
:10046000950505C061E0CE0101960E949C0181E0E6
:1004700090E00F90DF91CF910895089580E090E093
:1004800008958EBD00000DB407FEFDCF8EB5089512
:100490008FEF0C9441020F931F93CF93DF93EB01E7
:1004A0000E9488108B010E9448028F3F49F00E94F1
:1004B0008810601B710B6C177D07A8F380E001C0EA
:1004C00081E0DF91CF911F910F910895CF93CFB726
:1004D000F89480915B03811127C0EDEBF2E08491E9
:1004E000E0E9F2E09491E82FF0E0EE0FFF1FEA520E
:1004F000FE4FA591B491EC91E92321F461E081E1F3
:100500000E94390F61E081E10E94680F8CB5806123
:100510008CBD8CB580648CBD61E08FE00E94680F5B
:1005200061E080E10E94680F80915B038F5F8093A0
:100530005B03CFBFCF910895089561E0FC018481F2
:100540000E94390F80915C03811110925C03089521
:10055000CF93DF93EC018E81882389F08F8198857A
:100560009C012F5F3F4F38872F838230924018F4D1
:100570000E944802F3CFCE010E949D021E82DF91AD
:10058000CF9108958CBD9DBD0895CF93DF93EC016D
:1005900080915C03811109C081E080935C038091AC
:1005A0002F06909130060E94C20260E08C81DF919C
:1005B000CF910C94390F8F929F92AF92BF92FF927E
:1005C0000F931F93CF93DF93EC01F62E49015A014D
:1005D0000E94A802CE010E94C5026CE271E0CE0129
:1005E0000E944B028F2D80640E94410208E110E0BE
:1005F000D501C401002E04C0B695A795979587959F
:100600000A94D2F70E94410208501109083F8FEF67
:10061000180771F7FF2029F088E0F81204C087E876
:1006200003C085E901C08FEF0E94410210E00E94E3
:1006300048028A8787FF04C01F3F11F01F5FF7CF72
:10064000DF91CF911F910F91FF90BF90AF909F903E
:100650008F900895EF92FF920F931F93CF93DF93A4
:10066000EC017901411551056105710511F482E133
:100670003CC08B85833039F089E0440F551F661FDD
:10068000771F8A95D1F79A01AB0168E1CE010E94EC
:10069000DB02882311F084E028C08EEF0E94410223
:1006A00087018EEFF81AF80181918F010E944102B3
:1006B000E016F106C1F78FEF0E9441028FEF0E9412
:1006C00041020E9448028A878F71853031F081E1B2
:1006D0008D83CE010E949D0209C068E572E0CE01C3
:1006E0000E944B02811107C085E18D83CE010E94DB
:1006F0009D0280E014C020E030E0A9016DE0CE0151
:100700000E94DB02811109C00E944802811105C0CC
:10071000CE010E949D0281E002C084E1E6CFDF911C
:10072000CF911F910F91FF90EF90089580915D03FD
:100730008823A9F1409100015091010160910201CB
:100740007091030121E733E080917105909172056A
:100750000E942A03811102C080E0089540915E0347
:1007600050915F03609160037091610341155105E1
:100770006105710591F021E733E080917105909159
:1007800072050E942A03882339F310925E031092A7
:100790005F03109260031092610310925D0381E089
:1007A00008959F92AF92BF92CF92DF92EF92FF9205
:1007B0000F931F93CF93DF936B017C01942E809155
:1007C000000190910101A0910201B09103018C15EB
:1007D0009D05AE05BF0509F479C00E9496038823E4
:1007E00009F47AC0C0917105D09172058E81882379
:1007F00069F088819981AA81BB81C816D906EA0669
:10080000FB0621F48F819885892BB1F1C882D982AA
:10081000EA82FB828B85A7019601833039F099E04B
:10082000220F331F441F551F9A95D1F761E1CE0166
:100830000E94DB02882319F083E08D833AC00E9476
:1008400088108B010E9448028A878F3F49F40E94DA
:100850008810601B710B6D327140A0F38FE003C0F4
:100860008E3F31F08DE08D83CE010E949D0221C02C
:1008700018861F8281E08E8301E713E081E7A82EAE
:1008800085E0B82E0E944802F80181938F01AE16D0
:10089000BF06C1F78F8198859E5F98878F832985D2
:1008A000222319F08115924048F0CE010E94A8023F
:1008B00005C0CE010E949D0280E00EC0C0920001E2
:1008C000D0920101E0920201F092030140915D0398
:1008D000492940935D0381E0DF91CF911F910F91F2
:1008E000FF90EF90DF90CF90BF90AF909F900895D2
:1008F0008F929F92AF92BF92CF92DF92EF92FF9230
:100900000F931F93CF93DF93FC0181859285A3857D
:10091000B4850196A11DB11D84179507A607B707D9
:1009200010F480E05BC083889488A588B6888789A6
:10093000803129F4BB27A72F962F852F09C0DB0113
:10094000CA01C7E0B695A79597958795CA95D1F73F
:10095000E9016A017B018F01BC01CD01680D791DA0
:100960008A1D9B1D8090000190900101A0900201C2
:10097000B0900301681579058A059B0591F4F8018B
:1009800087898031A1F4DD24EE24FF24C601880F7D
:10099000991FFC01EF58FC4F80819181A0E0B0E0ED
:1009A00018C040E00E94D1038111E9CFBACFE8948A
:1009B000C7F8DD24EE24FF24C601880F991F880F95
:1009C000991FFC01EF58FC4F80819181A281B38176
:1009D000BF7088839983AA83BB8381E0DF91CF9125
:1009E0001F910F91FF90EF90DF90CF90BF90AF904D
:1009F0009F908F900895CF93DF93FC01248127FF70
:100A000029C0EC01668577858089918941E00E9443
:100A1000D103882319F1EA8980E2E89FF0011124CB
:100A2000EF58FC4F3097D1F08D81823040F48B89A4
:100A30009C89AD89BE89848F958FA68FB78F8F894A
:100A4000988DA98DBA8D938F828FB58BA48B8C8155
:100A50008F778C83DF91CF910C94960380E0DF91A8
:100A6000CF9108954F925F926F927F92AF92BF9213
:100A7000CF92DF92EF92FF920F931F93CF93DF936A
:100A800000D000D01F92CDB7DEB78C016D83DC01A2
:100A900015968C911597813009F054C014968C915D
:100AA00081FF50C059C0258530E0275F3F4F2A01A4
:100AB0003B01B1E04B1A510861087108022E04C0D5
:100AC00076946794579447940A94D2F7D701C60155
:100AD0000197A109B10904C0B695A7959795879587
:100AE0002A95D2F784159505A605B70508F078C0B4
:100AF000F8014789508D618D728D468357836087D9
:100B000071872C013D015801F6E0AF0EB11C411474
:100B100051046104710409F46DC0D80116964D9119
:100B20005D916D917C91199795015B968D919C914A
:100B30005C970E947804B1E04B1A51086108710873
:100B40008111E5CF81E090E0D80113969C938E93BC
:100B5000129780E090E023C182FF0EC0F801428529
:100B6000538564857585C388D488E588F6884C15D7
:100B70005D056E057F05E9F4D8011A964D915D91EA
:100B80006D917C911D975B96ED91FC915C979481A2
:100B900091506A017B0189E0F694E794D794C79459
:100BA0008A95D1F79C217A01B1E0FB22911173C0A3
:100BB00027C0D801038CF48DE02DC114D104E104C9
:100BC000F10409F070CF16961D921D921D921C9291
:100BD00019971A961D921D921D921C921D9714C072
:100BE000452B462B472B09F483CF84199509A60979
:100BF000B70987CFF801C286D386E486F586BCCFD5
:100C0000E114F10409F047C0D80116964D915D91A9
:100C10006D917C911997411551056105710559F444
:100C200057968D919D910D90BC91A02D0097A10597
:100C3000B10549F522C09E012F5F3F4FCF010E94B1
:100C40007804882309F485CF89819A81AB81BC819E
:100C5000F801238D348DF9012789203129F448EFDB
:100C60005FEF60E070E004C048EF5FEF6FEF7FE0A0
:100C700084179507A607B70730F0C8010E949A1796
:100C8000811106C05FCFF80186839783A087B18763
:100C9000E12CF12C90E0D8015B96ED91FC915C97F2
:100CA00016964D905D906D907C901997B2E04B1A1E
:100CB000510861087108058404C0440C551C661C69
:100CC000771C0A94D2F74685578560897189440E4E
:100CD000551E661E771E490E511C611C711CE114C5
:100CE000F10409F5F801428553856485758583898A
:100CF0009489A589B689481759076A077B0798F030
:100D00000E949603882309F41DCF4092000150925F
:100D10000101609202017092030180915D03816084
:100D200080935D0308C041E0C301B2010E94D1037A
:100D3000882309F407CFF701EF58FC4F8D8180839A
:100D4000F80182859385A485B5850196A11DB11D05
:100D500082879387A487B587438954896589768973
:100D6000481759076A077B0738F4838B948BA58B48
:100D7000B68B848180688483D80114968C9183FD1E
:100D800003C081E090E00BC0F8018581882309F45D
:100D9000D9CEC8010E94FB048111F3CFD3CE0F90AE
:100DA0000F900F900F900F90DF91CF911F910F91A7
:100DB000FF90EF90DF90CF90BF90AF907F906F90BB
:100DC0005F904F9008951F920F920FB60F921124CB
:100DD0002F933F934F935F936F937F938F939F9343
:100DE000AF93BF93EF93FF938091B900887F8036D4
:100DF00009F49CC068F5883209F45BC090F4803136
:100E000009F454C038F4882309F4EFC0883009F499
:100E10004DC0EFC0883109F44CC0803209F45DC088
:100E2000E8C0803409F468C048F4803309F455C040
:100E3000883309F0DEC08093BA05D1C0803509F44B
:100E40004FC0883509F45DC0883409F0D2C0CFC0E6
:100E5000883909F4C0C0A8F4883709F467C038F4A9
:100E6000883609F463C0803709F460C0C2C088388E
:100E700009F4B1C0803909F45FC0803809F0B9C005
:100E80005BC0803B09F481C038F4803A09F466C045
:100E9000883A09F47AC0ADC0803C09F4A0C0883C0F
:100EA00009F49DC0883B09F483C0A3C08091B705B5
:100EB00010C09091B9058091B805981770F5E09130
:100EC000B90581E08E0F8093B905F0E0EA56FA4F3C
:100ED00080818093BB0085EC7FC08093BA0587C07A
:100EE000E091B90581E08E0F8093B9058091BB0038
:100EF000F0E0EA56FA4F80839091B9058091B805E9
:100F000067C0E091B90581E08E0F8093B9058091AB
:100F1000BB00F0E0EA56FA4F80838091BB05811157
:100F200066C081E08093B60584EA5AC083E080936E
:100F3000BC0510925A03CFCF80915A03803208F03B
:100F40004AC0E0915A0381E08E0F80935A0380914A
:100F5000BB00F0E0E65CFC4F8083BDCF80915A037C
:100F6000803230F4E0915A03F0E0E65CFC4F1082EE
:100F70000E94920160915A0370E08AE393E0E0E0FE
:100F8000F0E0099510925A032AC084E08093BC05D2
:100F90001092390310923803E0E0F0E00995809157
:100FA0003803811105C081E0809338031092180343
:100FB000E091390381E08E0F80933903F0E0E85E21
:100FC000FC4F80818093BB0090913903809138035E
:100FD000981708F480CF85E88093BC000AC085ECA0
:100FE0008093BC001092BC0504C01092BA050E9408
:100FF0009201FF91EF91BF91AF919F918F917F915E
:101000006F915F914F913F912F910F900FBE0F9075
:101010001F9018951092BC0581E08093BB0510923B
:10102000B60561E082E00E94390F61E083E00E9432
:10103000390FE9EBF0E080818E7F808380818D7FA6
:10104000808380E28093B80085E48093BC0008959B
:101050002F923F924F925F926F927F928F929F92C8
:10106000AF92BF92CF92DF92EF92FF920F931F93B6
:10107000CF93DF93CDB7DEB7A1970FB6F894DEBF5D
:101080000FBECDBF8090120390901303998688867F
:10109000F401EE0FFF1FE051FD4F80819181092E79
:1010A000000CAA0BBB0B40911403509115036091E7
:1010B0001603709117034A015B01881A990AAA0A5C
:1010C000BB0A888E998EAA8EBB8E8AEF0E948812E8
:1010D0000091AA061091AB0620E030E0C72ED82E72
:1010E000E92EFF24E7FCFA94C01AD10AE20AF30AB7
:1010F000DC01CB0147E0B595A795979587954A9573
:10110000D1F7000F111F221F331F4C015D01801A00
:10111000910AA20AB30AA5019401A091AC06B0916C
:10112000AD060E941D244B015C016BE0B594A794B1
:10113000979487946A95D1F7A7019601C701B601E4
:101140000E949E239B01AC017CE055954795379505
:1011500027957A95D1F7A091AE06B091AF060E947F
:101160001D24DC01CB01EEE0B595A79597958795F9
:10117000EA95D1F7880D991DAA1DBB1D8093A20683
:101180009093A306A093A406B093A50687EF0E94B0
:1011900088126C8F7D8F8E8F9F8F8091A206909189
:1011A000A306A091A406B091A5066C017D01FF0CD9
:1011B000CC08DC2C76019C01AD016C2D7C2D8C2D96
:1011C0009C2D345F414051096109710981099109E0
:1011D00029A338A349835A836B837C838D839E83A1
:1011E00059016A017B018C010E9425242F83398BD0
:1011F0004A8B5B8B6C8B7D8B8E8B9F8B3091B30678
:101200002091B206932F990F990B492F592F692FCF
:10121000792F892F0E9425240CE00E941E25190198
:101220002A013B014C013091B5062091B406932F61
:10123000990F990BAF80B988CA88DB88EC88FD8844
:101240000E891F89492F592F692F792F892F0E94C5
:10125000252408E00E9437255101620173018401B1
:101260000E94552570588F4F9F4FA090B006B090A8
:10127000B106C12CD12CE12CF12C00E010E00E9431
:10128000252401E20E9437252A873B874C875D870A
:101290006E877F87888B692EA0E00E94672509F4FE
:1012A00018C13091BB062091BA06932F990F990B64
:1012B000AF80B988CA88DB88EC88FD880E891F89D1
:1012C000492F592F692F792F892F0E942524190121
:1012D0002A016F83772E4C013091B9062091B80610
:1012E000932F990F990BA9A0B8A0C980DA80EB8041
:1012F000FC800D811E81492F592F692F792F892F4D
:101300000E94252401E10E941E2551016201EF8007
:10131000F72C84010E94552559016A017B01782E22
:10132000192F4C8D5D8D6E8D7F8D94E07595679531
:10133000579547959A95D1F780E090E0A0E1B0E00D
:10134000841B950BA60BB70B1C012D01550C220815
:10135000322C21019C01AD01622D722D822D922D26
:101360000FE10E941E2549014A835983B62FA72FFA
:10137000F82FE92F3091B7062091B606932F990FD9
:10138000990B492F592F692F792F892F03E20E943A
:101390001E25072D0E94552559016A017B018C01EC
:1013A00094014A8159816B2F7A2F8F2F9E2F0E9493
:1013B0005E25E5E3AE2EFCE0BF2EC12CD12CE12C46
:1013C000F12C00E010E00E942524AA84BB84CC8488
:1013D000DD84EE84FF840889162D0E9480242A87EC
:1013E0003F8349835A836B837C838D839E830DE087
:1013F0000E943725922E832E742E652E562E472E50
:10140000382E292E3091C1062091C006932F990FB6
:10141000990BA92CB82CC72CD62CE52CF42C032D19
:10142000122D492F592F692F792F892F0E9425249A
:101430000E94252409E10E943725AA84BF80C98023
:10144000DA80EB80FC800D811E810E9455251901F8
:101450002A013B014C013091BF062091BE06932F1B
:10146000990F990B492F592F692F792F892F0E9496
:10147000252403E10E94372559016A017B018C0173
:101480009101A201B301C4010E94552508E00E9408
:10149000372559016A017B01E82F192F3091BD06CC
:1014A0002091BC06932F990F990B492F592F692F23
:1014B000792F892F04E00E941E250E2F0E945525AA
:1014C0000E94452320E030E040E85BE30E942121B8
:1014D00003C060E070E0CB010E940F23E885F9852E
:1014E000EE0FFF1FE051FD4F71836083CB01770F3B
:1014F000AA0BBB0B888C998CAA8CBB8C880E991E6E
:10150000AA1EBB1EC501B40180921403909215035C
:10151000A0921603B0921703288539852F5F3F4F9D
:101520002A3031052CF4309313032093120304C0A6
:1015300010921303109212032AE030E040E050E0D2
:101540000E94F82369017A0130931103209310035C
:101550006AE070E080E090E00E94C90FC601A196A9
:101560000FB6F894DEBF0FBECDBFDF91CF911F91B4
:101570000F91FF90EF90DF90CF90BF90AF909F9032
:101580008F907F906F905F904F903F902F90089535
:1015900040916D0350916E0320916B0330916C0369
:1015A00042175307B4F49091E8009570E1F39091DD
:1015B000E80092FD19C08093F10080916D03909135
:1015C0006E0301968F739927892B19F48EEF809300
:1015D000E80080916D0390916E03019690936E03E5
:1015E00080936D0381E0089580E00895DF92EF928B
:1015F000FF920F931F93CF93DF93D82E8A017B0125
:10160000E40EF51EEB01CE15DF0571F0D7FE03C029
:10161000FE01849101C088810E94C80A219681112F
:10162000F2CF8FEF9FEF01C0C801DF91CF911F91E3
:101630000F91FF90EF90DF900895CF92DF92EF929D
:10164000FF920F931F93CF93DF936C017A018B016D
:10165000C0E0D0E0CE15DF0581F0D8016D918D019D
:10166000D601ED91FC910190F081E02DC601099524
:10167000892B11F02196EECF7E01C701DF91CF912A
:101680001F910F91FF90EF90DF90CF900895CF932F
:10169000DF931F92CDB7DEB76983DC01ED91FC913A
:1016A0000280F381E02D41E050E0BE016F5F7F4F8B
:1016B00009950F90DF91CF91089583E08093E90021
:1016C0008091F200882319F08AE38093E80008955E
:1016D000FC018485958597FD0BC09FB7F89482E047
:1016E0008093E9008091F2009FBF90E001960895F9
:1016F0009FB7F89482E08093E9008091F2009FBF49
:1017000090E008950E945A270F931F93CF93DF9381
:101710001F92CDB7DEB782E0898342E450E064EEE9
:1017200071E080E80E94F60A0E94E718DC01129638
:101730000D911C9113970115110589F0D801ED91B8
:10174000FC910280F381E02DBE016F5F7F4FC801E5
:10175000099597FD04C0F80100851185ECCF8981BA
:101760000F90DF91CF911F910F9108950E94D6188D
:1017700090E00895FC018485958597FD05C02FEFC5
:101780003FEF3587248708950C949D18CF93DF93FE
:10179000EC018C859D8597FF04C00E949D189D8754
:1017A0008C878C859D85DF91CF9108950F931F9332
:1017B000CF93DF93EC0188819981009729F02A81EA
:1017C0003B812617370788F48B016F5F7F4F0E949C
:1017D0009426009761F0998388831B830A832C8168
:1017E0003D81232B11F4FC01108281E001C080E0D7
:1017F000DF91CF911F910F910895CF93DF93EC016B
:1018000088819981009711F00E940B261982188215
:101810001D821C821B821A82DF91CF910895EF9264
:10182000FF920F931F93CF93DF93EC017B018A010B
:10183000BA010E94D60B811104C0CE010E94FD0B9B
:1018400007C01D830C83B701888199810E946F278F
:10185000CE01DF91CF911F910F91FF90EF900895EE
:10186000FC0111821082138212821582148261158A
:10187000710551F0FB0101900020E9F73197AF01AC
:10188000461B570B0C940F0C08951F920F920FB626
:101890000F9211248F939F938091E1009091E1002A
:1018A000937F9093E10083FF0FC01092E90091E0D5
:1018B0009093EB001092EC0092E39093ED00109265
:1018C000E20698E09093F00082FF1CC093E09093B2
:1018D000E9009091F200992319F09AE39093E800BF
:1018E00090917003992329F09091700391509093F7
:1018F00070039091E106992329F09091E1069150AF
:101900009093E10684FF10C08091E2008E7E81609A
:101910008093E2008091E1008F7E8093E1008091CE
:10192000EE028E7E806111C080FF11C08091E200C6
:101930008E7E80618093E2008091E1008E7E8093B4
:10194000E1008091EE028E7E81608093EE029F9195
:101950008F910F900FBE0F901F9018951F920F92AE
:101960000FB60F921124CF92DF92EF92FF920F9356
:101970001F932F933F934F935F936F937F938F9317
:101980009F93AF93BF93EF93FF93CF93DF93CDB725
:10199000DEB76C97DEBFCDBF1092E9008091E80002
:1019A00083FF0BC289E0FE017596EE2EDF2E81507B
:1019B00029F09091F10090833196F9CF84E68093DD
:1019C000E10682EF8093E8008D8987FF05C0909142
:1019D000E80090FFFCCF03C09EEF9093E800982FA3
:1019E000907609F0C5C09E894F89588D2F89F88C53
:1019F00091110CC0803829F48091EF028093F1009E
:101A000002C01092F1001092F1004BC1913051F4DC
:101A1000811147C14130510509F043C18091EF0266
:101A20008D7F0BC0933061F481113BC14130510572
:101A300009F037C18091EF0282608093EF0231C1DB
:101A4000953049F48091E80080FFFCCF822F8068B8
:101A50008093E30026C1963009F05DC00B8D1C8D8C
:101A600022E01092E90010926E0310926D03F212C0
:101A700032C010926C0310926B030E94840B99E0A9
:101A8000BE016F5F7F4FDB01E92F1D92EA95E9F7F9
:101A90009983FA8291E09E8390EA98879AEF9987DA
:101AA00020916D0330916E03275F3F4F3C832B8362
:101AB0008D831092E90010926E0310926D031093C3
:101AC0006C0300936B0349E050E080E00E94F60A4B
:101AD0000E94840BE6C010936C0300936B030E947A
:101AE000E718DC0112960D911C9113970115110551
:101AF00009F4C1C0D801ED91FC910480F581E02D7D
:101B00006E2D7D2DC8010995009709F0CEC0F80112
:101B100000851185EBCF973009F44CC1983021F442
:101B200081E08093F100BDC0993009F0BAC08370A4
:101B300009F040C1E3E3F2E081E031E096E3208187
:101B4000211109C08EE78093EA001092EA008F8984
:101B50008093E206A6C08093E9003093EB002191C8
:101B60002093EC009093ED008F5F873041F7EACF30
:101B70008B8D9C8D1092E90010926E0310926D0374
:101B800090936C0380936B03898D81115BC08E8968
:101B90009D89913A49F4813209F00CC147E050E047
:101BA00068E071E080E0C2C0913209F003C1833285
:101BB00069F48F89988DA0E0B0E080930401909340
:101BC0000501A0930601B09307016BC08032A9F410
:101BD0008091E80082FFFCCF88E0E8E0F1E08150EE
:101BE00029F09091F10090833196F9CF84E68093AB
:101BF000E1068BEF8093E80054C0823209F051C0B7
:101C00008F8980930F01EEEFFFE7859194918B3FD1
:101C10009C4D19F0E0E0F8E002C0EEEFFAE08091B0
:101C2000080190910901A0910A01B0910B01803B3C
:101C30009440A105B10509F09DC080910F0180FF7E
:101C400078C098C00E94E718FC0102811381011539
:101C5000110509F4AFC0D801ED91FC910190F0811C
:101C6000E02D6E2D7D2DC801099581111AC0F80156
:101C700000851185ECCFF1E0FF1609F44EC0F3E0CA
:101C8000FF1298C08F89882309F44AC0823089F4F2
:101C900040E86CE085E492E00E94551F882309F437
:101CA00089C08EEF8093E80088C018161906CCF31F
:101CB00081C0813029F440E868E08CE392E0ECCF09
:101CC000833009F077C00E94E718DC011296ED908E
:101CD000FC9013978E010F5F1F4F6801E114F10410
:101CE00079F0D701ED91FC910680F781E02DB801E4
:101CF000C7010995080F111DF701E084F184EECFAB
:101D0000D8011C92F60101900020E9F73197BF013C
:101D10006C197D0940E0C601BFCF6AE272E002C0E3
:101D200066E272E0FB01449150E080E80E94F60A0E
:101D3000B8CFEE3F2AE0F20751F0808191818737DA
:101D4000A7E79A0721F09093FF0A8093FE0A87E79E
:101D500097E7918380838091600080936F039BE07D
:101D600088E10FB6F894A895809360000FBE909319
:101D7000600097CF808191818737974709F091CF95
:101D8000A8958091600088618093600080916F03C6
:101D900080936000EE3FBAE0FB0739F08091FE0AC5
:101DA0009091FF0A918380837CCF1092FF0A10925A
:101DB000FE0A77CF81E28093EB006C960FB6F89421
:101DC000DEBF0FBECDBFDF91CF91FF91EF91BF91ED
:101DD000AF919F918F917F916F915F914F913F91C3
:101DE0002F911F910F91FF90EF90DF90CF900F9068
:101DF0000FBE0F901F90189590E0FC013197EF30C7
:101E0000F105B0F5EA5AFF4F0C9417248091800039
:101E10008F7703C0809180008F7D8093800008952C
:101E200080918000877FF9CF84B58F7702C084B519
:101E30008F7D84BD0895809190008F7707C0809139
:101E400090008F7D03C080919000877F80939000E9
:101E500008958091C0008F7703C08091C0008F7D6E
:101E60008093C00008958091C200877F8093C20054
:101E700008951F93CF93DF93282F30E0F901E05AA4
:101E8000FD4F8491F901E158FD4FD491F901E455DA
:101E9000FD4FC491CC23C1F0162F81110E94FC0E7E
:101EA000EC2FF0E0EE0FFF1FE256FD4FA591B4912D
:101EB0009FB7F894111104C08C91D095D82302C01B
:101EC000EC91DE2BDC939FBFDF91CF911F910895A2
:101ED000CF93DF9390E0FC01E158FD4F2491FC018A
:101EE000E455FD4F8491882361F190E0880F991F9C
:101EF000FC01EA52FE4FC591D491FC01E256FD4F20
:101F0000A591B491611109C09FB7F894888120957B
:101F100082238883EC912E230BC0623061F49FB73B
:101F2000F8948881322F309583238883EC912E2B6F
:101F30002C939FBF06C08FB7F894E8812E2B28837F
:101F40008FBFDF91CF9108953FB7F89480916703D9
:101F500090916803A0916903B0916A0326B5A89B8C
:101F600005C02F3F19F00196A11DB11D3FBFBA2F2B
:101F7000A92F982F8827820F911DA11DB11DBC018B
:101F8000CD0143E0660F771F881F991F4A95D1F74F
:101F900008958F929F92AF92BF92CF92DF92EF926D
:101FA000FF926B017C010E94A40F4B015C01C114E4
:101FB000D104E104F104F1F00E94A40FDC01CB0193
:101FC00088199909AA09BB09883E9340A105B10562
:101FD00070F321E0C21AD108E108F10888EE880EFA
:101FE00083E0981EA11CB11CC114D104E104F104CA
:101FF00019F7DDCFFF90EF90DF90CF90BF90AF90BB
:102000009F908F9008958F929F92AF92BF92CF92A0
:10201000DF92EF92FF920F931F93CF93DF936C01A8
:102020007B018A0180910F01882309F45BC08091B4
:10203000E206882309F456C08091EE0280FF05C0B5
:102040008091E00082608093E000E801B12C8AEF8B
:10205000A82E93E0892E2AE3922E209711F4BB201C
:10206000D9F10E94D61881110AC0AA94AA20D1F1F0
:1020700061E070E080E090E00E94C90FEECF282F71
:1020800030E0C217D3070CF48C2F9FB7F8948092DE
:10209000E9002091E80025FF1DC0282F30E0C21B79
:1020A000D30BF701815020F041914093F100FACF1A
:1020B000E20EF31EBB2019F09092E8000AC0809156
:1020C000E80085FD07C09092E800BB24B3942097F8
:1020D00009F0B12C9FBFC1CF84E680937003101626
:1020E000110644F081E090E0F6019383828380E062
:1020F00090E001C0C801DF91CF911F910F91FF9037
:10210000EF90DF90CF90BF90AF909F908F90089509
:102110002FB7F89460916303709164038091650315
:10212000909166032FBF08951F920F920FB60F92E2
:1021300011242F933F938F939F93AF93BF938091DD
:10214000630390916403A0916503B091660330919D
:10215000620326E0230F2D3720F40296A11DB11D46
:1021600005C029E8230F0396A11DB11D209362032A
:102170008093630390936403A0936503B093660315
:102180008091670390916803A0916903B0916A03FD
:102190000196A11DB11D8093670390936803A093DE
:1021A0006903B0936A03BF91AF919F918F913F9163
:1021B0002F910F900FBE0F901F9018954F925F9226
:1021C0006F927F928F929F92AF92BF92CF92DF9247
:1021D000EF92FF920F931F93CF93DF93EC01423066
:1021E00051056105710510F480E078C089859A85F4
:1021F000AB85BC850196A11DB11D84179507A60767
:10220000B70790F3CB88DC88ED88FE888F89803112
:1022100029F4BB27A72F962F852F09C0DB01CA0100
:10222000E7E0B695A79597958795EA95D1F7480188
:1022300059012A013B01C80ED91EEA1EFB1E8091DE
:10224000000190910101A0910201B0910301C81613
:10225000D906EA06FB0681F48F898031A9F4B3011F
:10226000A201552766277727440F551FFA01EF581B
:10227000FC4F9182808219C040E0C701B6010E94E4
:10228000D1038111E9CFB0CFB301A2014F77552718
:1022900066277727440F551F440F551FFA01EF5843
:1022A000FC4F80829182A282B38280915D03816023
:1022B00080935D038A89823080F08D819E81AF8119
:1022C000B885C80ED91EEA1EFB1EC0925E03D092CE
:1022D0005F03E0926003F092610381E0DF91CF91B0
:1022E0001F910F91FF90EF90DF90CF90BF90AF9034
:1022F0009F908F907F906F905F904F900895CF92B6
:10230000DF92EF92FF920F931F93CF93DF93909101
:10231000A9069F3F51F4DF91CF911F910F91FF903C
:10232000EF90DF90CF900C944102E82EF12CC7E0A3
:10233000D0E001E010E0FF0C60E08091A9060E946F
:10234000390FB8010C2E01C0660F0A94EAF76E210E
:102350008091A7060E94390F61E08091A9060E9432
:10236000390F2091A80630E0F901E05AFD4F849121
:10237000F901E158FD4FD490F901E455FD4FC490A7
:10238000CC2071F081110E94FC0EEC2DF0E0EE0FDC
:10239000FF1FEE5AFD4FA591B491EC91DE2269F436
:1023A000219708F0C8CF8F2DDF91CF911F910F910A
:1023B000FF90EF90DF90CF9008958F2D8160F82EE1
:1023C000EFCF9091BC059111FCCF613208F060E233
:1023D00091E09093BC059093BB052FEF2093BA0535
:1023E0001092B905260F2093B8059093B7059091E8
:1023F000B705880F892B8093B7058091B60581308A
:1024000041F41092B6058091B7058093BB0085EC2E
:1024100001C085EE8093BC008091BC058130E1F362
:102420008091B905861710F46091B905E6E9F5E0E9
:10243000AFEBB5E080E0861721F091919D938F5F1F
:10244000FACF1092BE058093BD0508953091950591
:10245000313208F047C08091BC058111FCCF9091CA
:10246000E00622E02093BC0521E02093BB052FEF7E
:102470002093BA051092B9053093B805E5E7F5E069
:10248000A6E9B5E020E0321721F041914D932F5F8E
:10249000FACF1092B7052091B705990F922B909320
:1024A000B7059091B605913041F41092B605909120
:1024B000B7059093BB0095EC01C095EE9093BC00DE
:1024C0009091BC059230E1F39091BA059F3F79F06D
:1024D0008091BA05803241F08091BA05803331F0A5
:1024E00084E005C081E003C082E001C083E0109277
:1024F00074051092950510927305089591E09093DC
:1025000073058093E0061092740510929505089566
:102510004F925F926F927F928F929F92AF92BF92F3
:10252000CF92DF92EF92FF92CF93C82F8091A606B1
:102530008F3FC9F580919D060E947E126C2F8AE71D
:1025400096E00E940E020E94261263E080919D0692
:102550000E94E1118AE796E00E94C5012C01990FC3
:1025600066087708762C652C542C44248AE796E07C
:102570000E94C5016C01990FEE08FF08C428D528F8
:10258000E628F72888249C2CAD2CBE2C8AE796E000
:102590000E94C5016C01990FEE08FF08C828D928D0
:1025A000EA28FB2833C08091A9068F3F21F481E5FA
:1025B00090E00E94C20260E08091A6060E94390F5E
:1025C0008C2F80680E947F1180E00E947F11C82EAE
:1025D000D12CE12CF12CFE2CED2CDC2CCC2480E039
:1025E0000E947F11C82AFE2CED2CDC2CCC2480E02C
:1025F0000E947F11C82A61E08091A6060E94390FCF
:102600008091A9068F3F11F40E949C02C701B60178
:10261000CF91FF90EF90DF90CF90BF90AF909F90C1
:102620008F907F906F905F904F900895009769F022
:10263000FC0101900020E9F73197AF01481B590BCD
:10264000BC018FED95E00C94031080E090E00895BC
:10265000CF93DF930E941613EC0189E692E00E946B
:1026600016138C0F9D1FDF91CF9108950F931F9329
:10267000CF93DF93CDB7DEB729970FB6F894DEBFBF
:102680000FBECDBF0E94A40F0091D9061091DA06AB
:102690002091DB063091DC06DC01CB01801B910B25
:1026A000A20BB30B8C329140A105B10558F3F894FD
:1026B0008091CF069091D0069A838983A091D3060A
:1026C000B091D406FD0131968C9189878091CB061B
:1026D000A091DD06B091DE06882309F473C11B8248
:1026E000AB32B10509F058C09BB18091DF06982B41
:1026F00098879BB1809589238F838F818C8389856F
:1027000087FF02C088858C8358856F8149853C810D
:102710002B8189819A815BB9262F3BB900C046FD88
:10272000252F6BB900C05BB9362F2BB900C045FD12
:10273000352F6BB900C05BB9262F3BB900C044FDF3
:10274000252F6BB900C05BB9362F2BB900C043FDF4
:10275000352F6BB900C05BB9262F3BB900C042FDD5
:10276000252F6BB900C05BB9362F2BB900C041FDD6
:10277000352F6BB900C05BB9262F3BB900C040FDB7
:10278000252F6BB901975BB9362F2BB9419147FDC6
:10279000352F6BB901F612C1A532B10509F058C049
:1027A00095B18091DF06982B988795B18095892304
:1027B0008F838F818C83898587FF02C088858C8376
:1027C00058856F8149853C812B8189819A8155B9D2
:1027D000262F35B900C046FD252F65B900C055B973
:1027E000362F25B900C045FD352F65B900C055B954
:1027F000262F35B900C044FD252F65B900C055B955
:10280000362F25B900C043FD352F65B900C055B935
:10281000262F35B900C042FD252F65B900C055B936
:10282000362F25B900C041FD352F65B900C055B917
:10283000262F35B900C040FD252F65B9019755B940
:10284000362F25B9419147FD352F65B901F6B6C040
:10285000A832B10509F058C098B18091DF06982BD5
:10286000988798B1809589238F838F818C83898500
:1028700087FF02C088858C8358856F8149853C819C
:102880002B8189819A8158B9262F38B900C046FD1D
:10289000252F68B900C058B9362F28B900C045FDAA
:1028A000352F68B900C058B9262F38B900C044FD8B
:1028B000252F68B900C058B9362F28B900C043FD8C
:1028C000352F68B900C058B9262F38B900C042FD6D
:1028D000252F68B900C058B9362F28B900C041FD6E
:1028E000352F68B900C058B9262F38B900C040FD4F
:1028F000252F68B9019758B9362F28B9419147FD5E
:10290000352F68B901F65AC0D19709F08BC091B341
:102910008091DF06982B988791B3809589238F83C8
:102920008F818C83898587FF02C088858C83588539
:102930006F8149853C812B8189819A8151BB262FEA
:1029400031BB00C046FD252F61BB00C051BB362FF7
:1029500021BB00C045FD352F61BB00C051BB262FF8
:1029600031BB00C044FD252F61BB00C051BB362FD9
:1029700021BB00C043FD352F61BB00C051BB262FDA
:1029800031BB00C042FD252F61BB00C051BB362FBB
:1029900021BB00C041FD352F61BB00C051BB262FBC
:1029A00031BB00C040FD252F61BB019751BB362FC5
:1029B00021BB419147FD352F61BB01F649873C831F
:1029C0002B832EC09C918091DF06982B98879C9139
:1029D000809589238F838F818E8388E08D835885AE
:1029E0006F8149853D812E8189819A815C9347FD64
:1029F000252F2C93262F3A9531F0441F6C9300C05D
:102A000000C000C0F3CF6C93000038E04191019703
:102A100069F7B093DE06A093DD0649873D832E83D8
:102A20009A83898378940E94A40F6093D906709347
:102A3000DA068093DB069093DC0629960FB6F894AD
:102A4000DEBF0FBECDBFDF91CF911F910F910895D3
:102A50000F931F93CF93DF9380919C060E947E1269
:102A600060E08AE796E00E940E02CCE8D6E08E0194
:102A700068818AE796E00E940E022296F801618141
:102A80008AE796E00E940E02F6E0CC39DF0779F77C
:102A9000DF91CF911F910F910C9426128F929F92EC
:102AA000AF92BF92CF92DF92EF92FF92CF93DF93DC
:102AB000C82F81E396E09093720580937105CC2333
:102AC00069F1C53010F080E00CC140E060E070E0DA
:102AD000CB010E94D1038823B1F320E1C29FC00142
:102AE00011248F599C4FFC01E254FE4F20812F7717
:102AF00051F73C9640815181628173814436510582
:102B00006105710500F33497C080D180E280F380C5
:102B1000C114D104E104F10421F4D5CFC12CD12C8E
:102B2000760140E0C701B6010E94D103882359F223
:102B300080917C0390917D038115924021F6A091B4
:102B40008103AA2309F4BFCF60917F0370918003B2
:102B50006115710509F4B7CF20917E03222309F492
:102B6000B2CFA0934F062093410680E030E041E0D1
:102B700050E0C82FFA01082E02C0EE0FFF1F0A9482
:102B8000E2F72E173F0739F08F5FC83091F789E0E1
:102B900080934A0698CF80934A062091870330910C
:102BA00088032115310519F040E050E008C020915C
:102BB0009503309196034091970350919803209389
:102BC000420630934306409344065093450646011F
:102BD0005701860E971EA11CB11C80925006909240
:102BE0005106A0925206B0925306E0918203F091F2
:102BF0008303F0935606E0935506B0E00E94DF2170
:102C0000860E971EA81EB91E8092570690925806EF
:102C1000A0925906B0925A0685E0EE0FFF1F8A95E2
:102C2000E1F7E150FE4FEF2FFF27E6958E0E9F1E36
:102C3000A11CB11C80924B0690924C06A0924D06AE
:102C4000B0924E0620918403309185032115310501
:102C500021F0A90160E070E008C04091910350911B
:102C600092036091930370919403D701C601881970
:102C70009909AA09BB09840F951FA61FB71F04C095
:102C8000B695A79597958795CA95D2F780934606EE
:102C900090934706A0934806B0934906853F2FE0DE
:102CA0009207A105B10510F48CE018C0853F9F4F35
:102CB000A105B10510F480E111C080919D039091B0
:102CC0009E03A0919F03B091A00380935706909319
:102CD0005806A0935906B0935A0680E28093540692
:102CE00081E0DF91CF91FF90EF90DF90CF90BF9088
:102CF000AF909F908F900895CF93DF93C82F8091CE
:102D0000A6068F3F01F580919D060E947E126C2FD2
:102D10008AE796E00E940E020E94261262E08091ED
:102D20009D060E94E1118AE796E00E94C501C82F26
:102D30008AE796E00E94C50120E030E03C2FE901DF
:102D4000C82BD92B29C08091A9068F3F21F481E59A
:102D500090E00E94C20260E08091A6060E94390FB6
:102D60008C2F80680E947F1180E00E947F11C82F05
:102D700080E00E947F112C2F30E0322F2227E901C2
:102D8000C82B61E08091A6060E94390F8091A906A8
:102D90008F3F11F40E949C029C2F8D2FDF91CF91C9
:102DA0000895FC01248135816217730720F4808126
:102DB0009181009729F41092EF068FEE96E0089526
:102DC000860F971F0895EF92FF920F931F93CF9353
:102DD000DF936115710511F480E01CC041155105A8
:102DE000C1F07B01EC018C819D818A01080F191FC4
:102DF000B801CE010E94D60B882371F32881398156
:102E00008C819D81B701820F931F0E946F271D83C4
:102E10000C8381E0DF91CF911F910F91FF90EF9094
:102E20000895CF93DF93FC014481558160817181C6
:102E30008FED95E00E940310EC0189E692E00E947C
:102E400016138C0F9D1FDF91CF9108958F929F9243
:102E5000AF92BF92CF92DF92EF92FF92CF93DF9328
:102E60002091CD063091CE068217930708F057C007
:102E70004B01AA24BB24F82DC52ED62EE72EFF2405
:102E8000AC2DE42F2091D206222361F0829E4001D6
:102E90001124F92D2C9D60011124AD2D249FE001FA
:102EA0001124ED2F3091D806B091D506E090D306CD
:102EB000F090D4063B1308C09C01220F331F820FF1
:102EC000931F8E0D9F1D19C0880F991F880F991F82
:102ED0008E0D9F1D472F552766277727EC01C30FBF
:102EE000D11D222349F030E0249F7001259FF00C72
:102EF000349FF00C11244F2D48832091D506EC010E
:102F0000C20FD11DF8832091D606EC01C20FD11D4E
:102F1000A8832091D706DC01A20FB11DEC93DF91AD
:102F2000CF91FF90EF90DF90CF90BF90AF909F90A8
:102F30008F9008953F924F925F926F927F928F92FF
:102F40009F92AF92BF92CF92DF92EF92FF920F9338
:102F50001F93CF93DF93CDB7DEB72C970FB6F894BE
:102F6000DEBF0FBECDBF5C01DC015B968D909C90F7
:102F70005C971696CD90DD90ED90FC901997C1145A
:102F8000D104E104F10439F0BFEFCB1ADB0AEB0AFC
:102F9000FB0A312C07C0F401C080D180E280F380AD
:102FA00033243394F40181859285A385B4859C01F3
:102FB000AD012F5F3F4F4F4F5F4F29873A874B87B8
:102FC0005C87260137011D821E821F821886F4014C
:102FD00081859285A385B4852D813E814F81588559
:102FE000281739074A075B0708F063C089859A8567
:102FF000AB85BC858C159D05AE05BF0550F482E000
:10300000C82ED12CE12CF12C92E0492E512C612CB0
:10301000712C9E012F5F3F4FB701A601C4010E9492
:103020007804882309F445C089819A81AB81BC81E9
:10303000892B8A2B8B2B41F0260137019FEF491AF0
:10304000590A690A790A05C0C414D504E604F704CC
:1030500091F02D813E814F8158852F5F3F4F4F4F1B
:103060005F4F2D833E834F8358873FEFC31AD30AA8
:10307000E30AF30AACCF0FEF1FEF2FEF3FE0B301EE
:10308000A201C4010E94DE10882399F0D501169692
:103090004D915D916D917C91199741155105610597
:1030A000710549F093018201C4010E94DE10811173
:1030B00002C080E02AC0D50116964D925D926D92B5
:1030C0007C921997332051F0D301C2010196A11DC2
:1030D000B11DF40180839183A283B383F5018789B5
:1030E000908DA18DB28D892B8A2B8B2B69F4D50104
:1030F00057964D925D926D927C925A9714968C9150
:103100001497806814968C9381E02C960FB6F894EF
:10311000DEBF0FBECDBFDF91CF911F910F91FF900A
:10312000EF90DF90CF90BF90AF909F908F907F9067
:103130006F905F904F903F900895CF93DF931F92D1
:10314000CDB7DEB78091E206811103C08FEF9FEF0C
:1031500029C03FB7F89482E08093E9008091F200A3
:1031600090E01816190614F481E090E0282FFE0173
:10317000319644E6215030F04093E1065091F10041
:103180005193F8CF009721F02091F200222331F0E3
:103190003FBF0197D9F6898190E004C02BE62093C8
:1031A000E800F6CF0F90DF91CF9108952FB7F894F4
:1031B00083E08093E9009091E800892F807295FF69
:1031C00004C09091F20080E4891B2FBF0895809184
:1031D000E70681110DC082E08093E30684E08093CE
:1031E000E4061092E6061092E50681E08093E70679
:1031F00083EE96E00895CF93DF93CDB7DEB7AB971C
:103200000FB6F894DEBF0FBECDBF789484B5826050
:1032100084BD84B5816084BD85B5826085BD85B57A
:10322000816085BD80916E00816080936E001092F8
:103230008100809181008260809381008091810073
:103240008160809381008091800081608093800004
:1032500080919100826080939100809191008160C3
:103260008093910080919000816080939000809184
:10327000C10084608093C1008091C100826080930E
:10328000C1008091C10081608093C1008091C30022
:1032900081608093C3008091C00082608093C000F1
:1032A0008091C20081608093C20080917A00846026
:1032B00080937A0080917A00826080937A00809176
:1032C0007A008E7F80937A0080917A008068809364
:1032D0007A001092E2061092EF021092EE028091B4
:1032E000D70081608093D70080EA8093D80089B5A9
:1032F0008F7E89BD89B5826089BD09B400FEFDCF8E
:1033000061E070E080E090E00E94C90F8091D800F9
:103310008F7C80618093D8008091E000807F8093D3
:10332000E0008091E1008E7E8093E1008DE080934B
:10333000E2008FEF9FEF9093EC058093EB050AEC92
:1033400010E0F8016491611116C089E692E00E94D4
:10335000161387E780939D068091A6068F3FA1F400
:103360001092BE051092BD0510927405109295053D
:103370000E940A0825C08FED95E00E94470B0F5F61
:103380001F4F892BF1F6E1CF61E00E94390F61E018
:103390008091A6060E94680F8091A9068F3F19F4BC
:1033A0000E9466020DC061E00E94680F61E080919A
:1033B000A7060E94680F60E08091A8060E94680F2F
:1033C0008091A6068F3FB1F480919D060E947E12E7
:1033D00060ED8AE796E00E940E020E94261261E0EC
:1033E00080919D060E94E1118AE796E00E94C50146
:1033F000182F1FC08091A9068F3F21F481E590E02E
:103400000E94C20260E08091A6060E94390F80ED02
:103410000E947F1180E00E947F11182F61E080914F
:10342000A6060E94390F8091A9068F3F11F40E94D1
:103430009C02183509F088C088E80E947C16909399
:10344000AB068093AA068AE80E947C169093AD068C
:103450008093AC068CE80E947C169093AF06809314
:10346000AE068EE80E947C169093B1068093B0065B
:1034700080E90E947C169093B3068093B20682E99D
:103480000E947C169093B5068093B40684E90E944E
:103490007C169093B7068093B60686E90E947C1648
:1034A0009093B9068093B80688E90E947C169093A1
:1034B000BB068093BA068AE90E947C169093BD06EB
:1034C0008093BC068CE90E947C169093BF06809383
:1034D000BE068EE90E947C169093C1068093C006BA
:1034E0008091A6068F3F89F480919D060E947E12EE
:1034F00064EF8AE796E00E940E026FE38AE796E0A7
:103500000E940E020E94261224C08091A9068F3FBD
:1035100021F481E590E00E94C20260E08091A6065D
:103520000E94390F84E70E947F118FE30E947F1170
:1035300061E08091A6060E94390F8091A9068F3F15
:1035400041F40E949C0205C088E992E00E94281381
:10355000FFCFE0EFF2E01192119223E0E430F207A6
:10356000D1F78CE692E00E941613809160068823C2
:1035700039F08BE596E00E94FB0481111092600601
:1035800010923C0610923A061092370610923606B8
:103590008AE0809335060E9488108B0161E080915B
:1035A00035060E94680F61E0809135060E94390F50
:1035B0000E94660282E580932F0681E080933006A8
:1035C00080912F06909130060E94C202AAE0FA2E46
:1035D0008FEF0E944102FA94F110FACF0E949C02F0
:1035E00081E396E00E94C50220E030E0A90160E09E
:1035F00081E396E00E94DB02F82E80933B0631E0E7
:10360000831749F00E948810601B710B613D774061
:1036100058F381E056C02AEA31E040E050E068E02B
:1036200081E396E00E94DB0282FF03C0F0923C0639
:1036300010C0F4E0FF2E0E94480280933B06FA94EB
:10364000F110F9CF8A3A11F082E03BC082E080931A
:103650003C0680913C06823021F0C12CD12C7601B1
:1036600005C0C12CD12CE12CE0E4FE2E20E030E09E
:10367000A90167E381E396E00E94DB02A7019601BE
:1036800069E281E396E00E94DB0280933B06882397
:1036900049F00E948810601B710B613D774030F348
:1036A00088E00FC080913C06823001F520E030E0D8
:1036B000A9016AE381E396E00E94DB02882341F0DE
:1036C00086E08093360681E396E00E949D02D2C395
:1036D0000E944802807C803C19F483E080933C0681
:1036E0000E9448020E9448020E94480281E396E03C
:1036F0000E949D0280E580932F0681E08093300632
:103700000E944E15882329F080916006882341F09D
:10371000B1C380E00E944E15882309F4ABC3F4CFF7
:1037200080915406803109F582E080936006109202
:1037300072061092730610927406109275068091AC
:10374000550690915606A0E0B0E075E0880F991FED
:10375000AA1FBB1F7A95D1F780936E0690936F06D0
:10376000A0937006B09371065DC0803209F082C3E9
:1037700083E0809360068091570690915806A0914F
:103780005906B0915A068093720690937306A093DF
:103790007406B093750688A799A7AAA7BBA7C12CE2
:1037A000D12C7601812C62E0962EA12CB12C48A55B
:1037B00059A56AA57BA59E01285D3F4F8DE396E044
:1037C0000E947804882309F455C3D501C4010090F0
:1037D0004A0604C0880F991FAA1FBB1F0A94D2F77C
:1037E000C80ED91EEA1EFB1E48A559A56AA57BA5D1
:1037F00080915406803129F088EF9FEFAFEFBFE052
:1038000004C088EF9FEFA0E0B0E0481759076A07AF
:103810007B0768F2C0926E06D0926F06E092700647
:10382000F09271068DE396E090937706809376068A
:1038300081E080935F0610926106109262061092FA
:103840006306109264061092650610926606109246
:103850006706109268061092690610926A06109226
:103860006B0610926C0610926D0684E892E00E943E
:10387000281304E110E00E94280890930D03809320
:103880000C03825C914090930F0380930E030150D0
:10389000110989F76091D206653621F12091D3068E
:1038A0003091D406615031F070E08FEF94E60E94C1
:1038B000AE2302C060E070E0F9014091CF06509164
:1038C000D006CF01821B930B8417950740F44081EB
:1038D000469FC001479F900D11249193EECF85E63E
:1038E0008093D2068091D10687FD08C061E00E94D6
:1038F000680F60E08091D1060E94390F81E08093CB
:10390000CC068091D3069091D406892B11F00E94A9
:10391000361380E780939C061092BE051092BD0579
:1039200010927405109295050E940A0880919C06D9
:103930000E947E1261E28AE796E00E940E020E94D7
:10394000261280919C060E947E1261E88AE796E02A
:103950000E940E020E94261280919C060E947E12F6
:103960006FEE8AE796E00E940E020E942612809176
:103970009C060E947E1262EE8AE796E00E940E028A
:103980000E942612ECE8F6E08CE996E01192119282
:103990008E179F07D9F70E94281544E6242E312C54
:1039A0008E010F5F1F4F5AE0852E912CA12CB12C58
:1039B0000E9428087C010E94881039E0C32ED12C77
:1039C00040E050E0BA01C6010E9426179FEFC91AD5
:1039D000D90AA2E1CA16D10499F720910E033091B9
:1039E0000F03C701821B930B97FF03C0919581952D
:1039F0009109B1010E94C2236B012E153F052CF5E0
:103A0000643071053CF040E050E060E077E081E137
:103A100090E046C04EEC4603F001479FF00D1124A4
:103A2000E650FE4F808190E0A0E0B0E03C015524DC
:103A300044244427582F692F7A2F44295529662971
:103A400077297760C6010D9621C0E216F30604F5CA
:103A5000643071053CF040E050E061E877E089E0D7
:103A600090E01EC092E3969FF001979FF00D112405
:103A7000EE5CFE4F408150E060E070E0BA015527F7
:103A8000442777608DE090E08C199D090E942617ED
:103A9000CD2841F440E05AE360E077E08DE090E02B
:103AA0000E94261780910C0390910D03E81AF90AE1
:103AB000ADEEEA16AFEFFA0664F47CEEC72EDD2415
:103AC000DA94CE18DF08BBEBEB16BFEFFB060CF465
:103AD00050C00E948810C0900803D0900903E09065
:103AE0000A03F0900B03E8E5CE0EEBE1DE1EE11CCD
:103AF000F11CC616D706E806F90608F075C020E0E6
:103B000030E0A901609104037091050380910603E0
:103B1000909107030E949923181664F44091CF06F0
:103B20005091D00660E070E08091D3069091D40669
:103B30000E94682710920403109205031092060356
:103B4000109207030E94280890930D0380930C03A2
:103B5000825C914090930F0380930E030E94881023
:103B6000609308037093090380930A0390930B03F7
:103B70003BC00E94881060930803709309038093F0
:103B80000A0390930B03C60166E970E00E94C2230A
:103B9000072E000C880B990B0E94C2202FE832ECF4
:103BA00045E75CE30E94212120E030E040E05FE354
:103BB0000E9421212FE832EC45E75CE30E9431228C
:103BC0009B01AC0160910403709105038091060391
:103BD000909107030E9431226093040370930503C0
:103BE00080930603909307034090040350900503CD
:103BF000609006037090070320E030E040E151E45C
:103C0000C301B2010E949D220E940F23FB01EE0F0F
:103C1000FF1FEE0FFF1FEA5EFE4F8381C080D12C95
:103C2000E12CF12C7601DD24CC24F82A8281C82AEB
:103C30008181D82AC301B2010E940F23CB0169E020
:103C400070E00E94C223B701A6010E9426171BA2A2
:103C50001AA21DA21CA21FA21EA220E030E040E278
:103C600051E4C301B2010E9421210E940F23DC0113
:103C7000CB014AE0B8010E947620F80101900020B3
:103C8000E9F73197AF01401B510BB801CE01829685
:103C90000E940F0CCE0182960E9411172EA13FA107
:103CA00040E050E019A27E01F1E2EF0EF11CCA01E2
:103CB000B901A50194010E94D623605DD7016E93DE
:103CC0007D01211531054105510589F7CD010E947E
:103CD000161389E692E00E9416138AA19BA1009711
:103CE00039F00E944F206A307105810591052CF54D
:103CF00066E972E0C8010E94300C4EA15FA16AA182
:103D00007BA1C8010E94E316811103C0C8010E9473
:103D1000FD0B69817A816115710539F04D815E81F4
:103D2000CE0182960E940F0C04C0CE0182960E94A2
:103D3000FD0B89819A810E940B26CE0182960E94FA
:103D40001117E12CF12C8EA19FA1E4E0F0E0E81B1B
:103D5000F90BEE15FF0520F166E972E0C8010E943B
:103D6000300C4EA15FA16AA17BA1C8010E94E3169D
:103D700069817A816115710539F04D815E81CE01CD
:103D800082960E940F0C04C0CE0182960E94FD0B09
:103D900089819A810E940B26FFEFEF1AFF0AD3CF89
:103DA00044E0E42EF12C60E070E0CE0182960E94A7
:103DB000D116DC01EC91F0E0EE0FFF1FEA52FF4F4D
:103DC0008591949190938D0680938C0661E070E0CC
:103DD000CE0182960E94D116DC01EC91F0E0EE0F4C
:103DE000FF1FEA52FF4F8591949190938F06809325
:103DF0008E0662E070E0CE0182960E94D116DC0150
:103E0000EC91F0E0EE0FFF1FEA52FF4F8591949185
:103E10009064909391068093900663E070E0CE01E9
:103E200082960E94D116DC01EC91F0E0EE0FFF1FAC
:103E3000EA52FF4F85919491909393068093920656
:103E4000B1E0EB1AF10809F0AECF0E9428158AA163
:103E50009BA10E940B268091D3069091D406892BBA
:103E600011F00E943613E0E0F0E0309709F4A0CDA5
:103E700009959ECD8CEC92E00E942813FFCF809193
:103E80008606909187060E940B268091D30690911A
:103E9000D406009711F00E940B268091D10687FD71
:103EA00003C060E00C94680F0895DF92EF92FF92D8
:103EB0000F931F93CF93DF93D82EF92EE42E062F66
:103EC00010E0C8010196880F0E94C80A83E00E9492
:103ED000C80ACD2DDF2D0C0F1D1FC017D10789F08B
:103EE000E7FE03C0FE01849101C088810E94C80AD8
:103EF000F82E80E00E94C80A8F2121968111EDCF13
:103F000001C081E0DF91CF911F910F91FF90EF9061
:103F1000DF9008950F931F931092E2051092E10530
:103F200048EE53E060E070E04093E3055093E40511
:103F30006093E5057093E6058DE392E09093E005CC
:103F40008093DF058FEF9FEF9093EC058093EB0557
:103F500080E580932F0681E080933006109236062C
:103F60001092370610923A0610923C0602E010E0DA
:103F700020E030E000933D0610933E0620933F067C
:103F8000309340061092540610925E0610925D0621
:103F90002FE432E030935C0620935B0610926006BB
:103FA00010927D0610927C0640937E0650937F0609
:103FB00060938006709381062BE532E030937B0698
:103FC00020937A061092CC061092D2061092D9064F
:103FD0001092DA061092DB061092DC0693E09093C2
:103FE000D8068093D5061092D60692E09093D70615
:103FF0008093CB0688E490E09093D0068093CF0620
:104000000E9473259093D4068093D306009761F0A5
:1040100028E4FC0111922A95E9F782E190E090935F
:10402000CE068093CD0608C01092D0061092CF061F
:104030001092CE061092CD068CE08093D10680912E
:10404000CC06882341F061E08CE00E94680F60E0BC
:104050008CE00E94390FE8EBF2E0E491F0E0EE0F23
:10406000FF1FE256FD4F859194919093DE06809359
:10407000DD06EBE8F2E0E491E093DF068FEF80935A
:10408000A6068093A7068093A8068093A90668EEEB
:1040900072E086E896E01F910F910C94300C1F930C
:1040A000FC0199278827BC01E89411911032E9F3AB
:1040B000193010F01E30C8F31B3251F01D3249F494
:1040C000689406C00E948120610F711D811D911DA1
:1040D000119110531A30B0F33EF49095809570957D
:1040E00061957F4F8F4F9F4F1F910895BB274A3097
:1040F00031F4992322F4BDE2909581959F4F0C9461
:104100009720592F482F372F262F660F771F881F8C
:10411000991F660F771F881F991F620F731F841FD7
:10412000951F660F771F881F991F0895BB27FB01F6
:104130005527AA27880F991FAA1FA41710F0A41BA0
:1041400083955051B9F7A05DAA3308F0A95DA193FA
:10415000009779F7B111B1931192CB010C94B02073
:10416000DC01FC01672F71917723E1F7329704C0DE
:104170007C916D9370836291AE17BF07C8F3089569
:10418000E89409C097FB3EF49095809570956195F1
:104190007F4F8F4F9F4F9923A9F0F92F96E9BB27A7
:1041A0009395F695879577956795B795F111F8CF23
:1041B000FAF4BB0F11F460FF1BC06F5F7F4F8F4F8E
:1041C0009F4F16C0882311F096E911C0772321F084
:1041D0009EE8872F762F05C0662371F096E8862F1C
:1041E00070E060E02AF09A95660F771F881FDAF773
:1041F000880F9695879597F90895990F0008550FA0
:10420000AA0BE0E8FEEF16161706E807F907C0F05C
:1042100012161306E407F50798F0621B730B840B64
:10422000950B39F40A2661F0232B242B252B21F43E
:1042300008950A2609F4A140A6958FEF811D811DDE
:1042400008950E9434210C94A5210E94972138F0F2
:104250000E949E2120F0952311F00C948E210C9445
:10426000942111240C94D9210E94B62170F3959FBA
:10427000C1F3950F50E0551F629FF001729FBB275D
:10428000F00DB11D639FAA27F00DB11DAA1F649FF9
:104290006627B00DA11D661F829F2227B00DA11DAC
:1042A000621F739FB00DA11D621F839FA00D611D32
:1042B000221F749F3327A00D611D231F849F600D53
:1042C000211D822F762F6A2F11249F5750409AF07C
:1042D000F1F088234AF0EE0FFF1FBB1F661F771F08
:1042E000881F91505040A9F79E3F510580F00C94D3
:1042F0008E210C94D9215F3FE4F3983ED4F3869548
:1043000077956795B795F795E7959F5FC1F7FE2B72
:10431000880F911D9695879597F9089597F99F674E
:1043200080E870E060E008959FEF80EC089500243D
:104330000A941616170618060906089500240A940A
:1043400012161306140605060895092E0394000C90
:1043500011F4882352F0BB0F40F4BF2B11F460FF1F
:1043600004C06F5F7F4F8F4F9F4F089557FD905848
:10437000440F551F59F05F3F71F04795880F97FB29
:10438000991F61F09F3F79F08795089512161306E3
:104390001406551FF2CF4695F1DF08C01616170612
:1043A0001806991FF1CF8695710561050894089547
:1043B000E894BB2766277727CB0197F908950E94D9
:1043C0002122A59F900DB49F900DA49F800D911D5B
:1043D000112408952F923F924F925F926F927F9295
:1043E0008F929F92AF92BF92CF92DF92EF92FF9205
:1043F0000F931F93CF93DF93CDB7DEB7CA1BDB0BB1
:104400000FB6F894DEBF0FBECDBF09942A88398855
:1044100048885F846E847D848C849B84AA84B9845C
:10442000C884DF80EE80FD800C811B81AA81B98168
:10443000CE0FD11D0FB6F894DEBF0FBECDBFED017C
:104440000895A29FB001B39FC001A39F700D811D6D
:104450001124911DB29F700D811D1124911D08958D
:104460005058BB27AA270E9448220C94A5210E94DD
:10447000972138F00E949E2120F039F49F3F19F4D3
:1044800026F40C9494210EF4E095E7FB0C948E2115
:10449000E92F0E94B62158F3BA1762077307840701
:1044A000950720F079F4A6F50C94D8210EF4E09548
:1044B0000B2EBA2FA02D0B01B90190010C01CA01DE
:1044C000A0011124FF27591B99F0593F50F4503E89
:1044D00068F11A16F040A22F232F342F4427585F7B
:1044E000F3CF469537952795A795F0405395C9F793
:1044F0007EF41F16BA0B620B730B840BBAF091504B
:10450000A1F0FF0FBB1F661F771F881FC2F70EC0E9
:10451000BA0F621F731F841F48F4879577956795BC
:10452000B795F7959E3F08F0B0CF9395880F08F0A8
:104530009927EE0F9795879508950E94B1220C94C4
:10454000A5210E949E2158F00E94972140F029F455
:104550005F3F29F00C948E2151110C94D9210C94B9
:1045600094210E94B62168F39923B1F3552391F366
:10457000951B550BBB27AA2762177307840738F0D2
:104580009F5F5F4F220F331F441FAA1FA9F335D02F
:104590000E2E3AF0E0E832D091505040E695001CE3
:1045A000CAF72BD0FE2F29D0660F771F881FBB1F9D
:1045B000261737074807AB07B0E809F0BB0B802D7B
:1045C000BF01FF2793585F4F3AF09E3F510578F0A7
:1045D0000C948E210C94D9215F3FE4F3983ED4F3E0
:1045E000869577956795B795F7959F5FC9F7880F7B
:1045F000911D9695879597F90895E1E0660F771FCD
:10460000881FBB1F621773078407BA0720F0621B5D
:10461000730B840BBA0BEE1F88F7E09508950E9488
:1046200016236894B1110C94D92108950E94BE21DB
:1046300088F09F5798F0B92F9927B751B0F0E1F063
:10464000660F771F881F991F1AF0BA95C9F714C013
:10465000B13091F00E94D821B1E008950C94D82196
:10466000672F782F8827B85F39F0B93FCCF386954C
:1046700077956795B395D9F73EF4909580957095A9
:1046800061957F4F8F4F9F4F089597FB16F40E94BF
:1046900089230C944C23E894F92F96EBFF2381F0A7
:1046A000121613061406440B9395F6958795779585
:1046B000679557954040FF23B9F71BC09927089588
:1046C000882351F49850D2F7872B762F652F542FDB
:1046D000432F322F20E0B1F3121613061406440BB9
:1046E00088233AF09A95440F551F661F771F881F3D
:1046F000CAF755234AF4440F551F11F460FF04C054
:104700006F5F7F4F8F4F9F4F880F9695879597F9D3
:104710000895909580957095609550954095309549
:1047200021953F4F4F4F5F4F6F4F7F4F8F4F9F4FA1
:1047300008950E94FD2008F48FEF0895DB018F9308
:104740009F930E94DF21BF91AF91A29F800D911D89
:10475000A39F900DB29F900D11240895AA1BBB1B1F
:1047600051E107C0AA1FBB1FA617B70710F0A61B71
:10477000B70B881F991F5A95A9F780959095BC0192
:10478000CD01089597FB072E16F4009407D077FD0E
:1047900009D00E94AE2307FC05D03EF49095819588
:1047A0009F4F0895709561957F4F0895A1E21A2E4D
:1047B000AA1BBB1BFD010DC0AA1FBB1FEE1FFF1FC5
:1047C000A217B307E407F50720F0A21BB30BE40B15
:1047D000F50B661F771F881F991F1A9469F760955C
:1047E0007095809590959B01AC01BD01CF01089516
:1047F000052E97FB1EF400940E940F2457FD07D04E
:104800000E94D62307FC03D04EF40C940F2450953D
:104810004095309521953F4F4F4F5F4F08959095AC
:104820008095709561957F4F8F4F9F4F0895EE0F44
:10483000FF1F0590F491E02D0994B7FF0C94DF2140
:104840000E94DF21821B930B0895DF93CF931F9368
:104850000F939A9DF02D219FF00D8B9DF00D8A9D59
:10486000E02DF10D039FF00D029FE00DF11D4E9D17
:10487000E00DF11D5E9DF00D4F9DF00D7F936F9348
:10488000BF92AF925F934F93D5010E9421228B017B
:10489000AC01D7010E942122EB01E80FF91FD601DC
:1048A0000E9475242F913F91D6010E942122C60FAC
:1048B000D71FE81FF91FAF91BF910E9475242F9158
:1048C0003F910E942122C60FD71FE81FF91FD60172
:1048D0000E942122E60FF71F9801BE01CF0111248B
:1048E0000F911F91CF91DF9108950E942122460FD1
:1048F000571FC81FD91F08F431960895689401C046
:10490000E894F92FF12B12F00C94B224A0E0B0E05F
:10491000ECE8F4E20C94F021092E059422F40E94B4
:104920000E25112392F4F0E80F26FFEFE094F094A7
:1049300000951095B094C094D094A194BF0ACF0A6A
:10494000DF0AEF0AFF0A0F0B1F0B0E94BD2407FCB2
:104950000E940E25CDB7DEB7ECE00C940C226894D3
:1049600001C0E8948F929F92CF93DF930E94BD2461
:10497000DF91CF919F908F90089588249924F4011E
:10498000E401B0E49F93AA279A158B049C04ED05DB
:10499000FE05CF05D007A10798F4AD2FDC2FCF2F50
:1049A000FE2FE92D982C892E982F872F762F652F93
:1049B000542F432F322F2227B85031F7BF9127C0F1
:1049C0001B2EBF91BB27220F331F441F551F661F8D
:1049D000771F881F991F881C991CEE1FFF1FCC1F73
:1049E000DD1FAA1FBB1F8A149B04EC05FD05CE0525
:1049F000DF05A007B10748F08A189B08EC09FD09FC
:104A0000CE09DF09A00BB10B21601A94E1F62EF458
:104A10009401AF01BE01CD01000C08956095709521
:104A20008095909530954095509521953F4F4F4FEB
:104A30005F4F6F4F7F4F8F4F9F4F08950F930830F9
:104A400090F0982F872F762F652F542F432F322FDA
:104A500022270850F4CF220F331F441F551F661F13
:104A6000771F881F991F0A95B2F70F91089597FB3A
:104A700010F8169400080F93083098F00850232F70
:104A8000342F452F562F672F782F892F902DF4CF55
:104A90000594979587957795679557954795379599
:104AA00027950A95AAF70F9108952A0D3B1D4C1DD5
:104AB0005D1D6E1D7F1D801F911F08952A193B09E2
:104AC0004C095D096E097F09800B910B0895002444
:104AD000A7FD00942A1730054005500560057005B4
:104AE0008005900508950F931F93CF93DF93823035
:104AF000910510F482E090E0E091F206F091F30667
:104B000020E030E0A0E0B0E0309719F14081518121
:104B10000281138148175907C8F08417950769F473
:104B2000109731F012960C93129713961C9327C08E
:104B30000093F2061093F30622C02115310519F0F7
:104B40004217530718F49A01BD01EF01DF01F80184
:104B5000DBCF21153105F9F0281B390B2430310545
:104B600080F48A819B816115710521F0FB0193839B
:104B7000828304C09093F3068093F206FE0132967E
:104B800044C0FE01E20FF31F81939193225031093B
:104B9000398328833AC02091F0063091F106232B07
:104BA00041F420911201309113013093F1062093CA
:104BB000F00620911001309111012115310541F4C9
:104BC0002DB73EB74091140150911501241B350BB0
:104BD000E091F006F091F106E217F307A0F42E1B26
:104BE0003F0B2817390778F0AC014E5F5F4F241751
:104BF000350748F04E0F5F1F5093F1064093F006C3
:104C00008193919302C0E0E0F0E0CF01DF91CF917A
:104C10001F910F910895CF93DF93009709F481C0FE
:104C2000FC01329713821282A091F206B091F30632
:104C3000109781F420813181820F931F2091F0061B
:104C40003091F1062817390751F5F093F106E093FA
:104C5000F00667C0ED0120E030E0CE17DF0740F43A
:104C60004A815B819E0141155105F1F0EA01F5CFC2
:104C7000D383C28340815181840F951FC817D90700
:104C800059F488819981840F951F029691838083BE
:104C90008A819B81938382832115310529F4F093C6
:104CA000F306E093F2063DC0E901FB83EA834991F4
:104CB0005991C40FD51FEC17FD0761F480819181D4
:104CC000840F951F0296E9019983888382819381DD
:104CD0009B838A83E0E0F0E012968D919C9113977C
:104CE000009719F0FD01DC01F7CF8D919C91119790
:104CF0009D012E5F3F4F820F931F2091F006309150
:104D0000F1062817390769F4309729F41092F30651
:104D10001092F20602C013821282B093F106A093A1
:104D2000F006DF91CF910895A0E0B0E0EAE9F6E265
:104D30000C94EE21EC01009721F4CB010E94732525
:104D4000B4C0FC01E60FF71F9C0122503109E217A5
:104D5000F30708F4A8C0D9010D911C91119706170B
:104D60001707B0F00530110508F49BC0C80104977F
:104D70008617970708F495C002501109061B170BF8
:104D8000019311936D937C93CF010E940B2689C0F0
:104D90005B01A01AB10A4C01800E911EA091F2068F
:104DA000B091F306612C712CE12CF12C109709F4D1
:104DB00046C08D919C911197A815B905B1F56C016C
:104DC00042E0C40ED11CCA14DB0478F14C018A18ED
:104DD0009B08640142E0C40ED11C1296BC9012974D
:104DE0001396AC91B5E0CB16D10440F0B282A38308
:104DF00091828082D9016D937C9309C00E5F1F4F11
:104E0000800F911FF90191838083EB2DFA2FE1141C
:104E1000F10431F0D7011396FC93EE93129741C041
:104E2000F093F306E093F2063CC06816790608F4A6
:104E30003C017D0112960D90BC91A02DB7CF8091C1
:104E4000F0069091F10688169906E1F46616770649
:104E5000C8F48091100190911101009741F48DB731
:104E60009EB74091140150911501841B950BE817D2
:104E7000F907C8F4F093F106E093F006F9017183A5
:104E800060830FC0CB010E9473257C01009759F00D
:104E9000A801BE010E945F27CE010E940B26C70118
:104EA00004C0CE0102C080E090E0CDB7DEB7EEE0F6
:104EB0000C940A2281E090E0F8940C947627FB0190
:104EC000DC0102C001900D9241505040D8F7089586
:104ED000DC0101C06D9341505040E0F70895FB01A3
:104EE000DC0101900D920020E1F7089511E0C7E682
:104EF000D1E004C0FE010E9417242196C836D107D4
:064F0000C9F7F894FFCF91
:104F0600FFFFFFFFFFFFFFFF00E1000000000000C2
:104F16000000F40680000028000000002800280099
:104F2600000028002800002828003C14000000008B
:104F36000028000000000000000000000000000043
:104F46000000000000000000000000000000010159
:104F56000101010101010101010101020202020236
:104F66000202020303030303030304040404040507
:104F760005050506060606070707070808080909BE
:104F8600090A0A0A0B0B0B0C0C0D0D0D0E0E0F0F5A
:104F960010101111121213131414151516161718D2
:104FA6001819191A1B1B1C1D1D1E1F202021222328
:104FB60023242526272728292A2B2C2D2E2F30314E
:104FC60032323334363738393A3B3C3D3E3F404245
:104FD6004344454648494A4B4D4E4F515253555608
:104FE60057595A5C5D5F606263656668696B6D6E92
:104FF6007072737577787A7C7E7F81838587898ADC
:105006008C8E90929496989A9C9EA0A2A4A7A9ABE7
:10501600ADAFB1B4B6B8BABDBFC1C4C6C8CBCDD0AA
:10502600D2D5D7DADCDFE1E4E7E9ECEFF1F4F7F922
:10503600FCFF00C1808100000000000000470B0358
:1050460010B60B5D0B680BBA0BC60B0000000032E6
:10505600051D0B3E023D02000000000E02E1013E6E
:1050660002B501D901C501B6010D0A00496E697480
:1050760069616C697A696E67205344206361726462
:105086002E2E2E006361726420696E697469616CEC
:10509600697A65642E003000436F756C64206E6F0C
:1050A600742066696E6420612076616C69642042B2
:1050B6004D503238302073656E736F722C206368E2
:1050C60065636B20776972696E672100436172645C
:1050D600206661696C65642C206F72206E6F742087
:0E50E60070726573656E740064617461000021
:1070000055C000006EC000006CC000006AC00000E7
:1070100068C0000066C0000064C0000062C00000DC
:1070200060C000005EC00000DAC400005AC000006A
:1070300058C0000056C0000054C0000052C00000FC
:1070400050C0000076C000004CC000004AC00000E4
:1070500048C0000046C0000044C0000042C000001C
:1070600040C000003EC000003CC000003AC000002C
:1070700038C0000036C0000034C0000032C000003C
:1070800030C000002EC000002CC000002AC000004C
:1070900028C0000026C0000024C0000022C000005C
:1070A00020C000001EC000001CC0000011241FBE34
:1070B000CFEFDAE0DEBFCDBF11E0A0E0B1E0EEEF50
:1070C000FEE702C005900D92AA3CB107D9F711E086
:1070D000AAECB1E001C01D92A03EB107E1F781D357
:1070E0000CC78ECFF89410926F001092810010920E
:1070F00085001092840081E085BF15BE47980C94EE
:10710000000008952091D4013091D5012F5F3F4FA9
:107110003093D5012093D401932F37FF03C08EEF16
:10712000831B982F990F921710F447980895479A48
:1071300008951F920F920FB60F9211242F938F93E1
:107140009F93EF93FF93109285001092840080919B
:10715000CA019091CB01009729F001979093CB0140
:107160008093CA018091CC019091CD01009729F0C4
:1071700001979093CD018093CC01E0E0F0E0859100
:1071800094918F5F9F4F49F08091CE019091CF01F4
:1071900001969093CF018093CE01FF91EF919F9143
:1071A0008F912F910F900FBE0F901F90189584E034
:1071B0008093E9000DC08091E8008B778093E80010
:1071C00003C08EB3882351F08091E80082FFF9CF8D
:1071D0008091E80085FFEFCF8091F1000895982F0E
:1071E00083E08093E9008091E80085FD0DC08091E7
:1071F000E8008E778093E80003C08EB3882361F0A7
:107200008091E80080FFF9CF9093F10084E690E050
:107210009093CB018093CA0108954F925F926F9231
:107220007F928F929F92AF92BF92CF92DF92EF9216
:10723000FF920F931F93CF93DF9384E08093E90035
:107240008091E80082FF56C284E690E09093CD01E1
:107250008093CC01ACDF182F853481F48CE195E26A
:107260009093CF018093CE0107B600FCFDCFF99932
:10727000FECF81E180935700E89503C0843519F46F
:1072800096DF8DE00DC28C34E1F38035D1F3843785
:1072900021F484E4A4DF80E003C2813611F489E59F
:1072A000FFC18134B1F483DF182F81DF90E0880FB4
:1072B000991FAA2797FDA095BA2F312F330F20E0F1
:1072C000442737FD4095542F822B932BA42BB52BAD
:1072D000B8C1803711F483E5E3C1833549F4C0E0D8
:1072E000D1E089917CDF21E0C730D207D1F7D9C145
:1072F000863521F481E373DF80E3D2C1833731F433
:1073000087E86DDF85E96BDF8EE1CAC18536B9F4A8
:10731000E0E0F0E093E085E090935700E89507B651
:1073200000FCFDCF80935700E89507B600FCFDCF29
:10733000E058FF4FA0E7E030FA0771F7A2CF82379D
:1073400039F4E1E0F0E089E0809357008491A8C12E
:10735000863439F4E0E0F0E089E0809357008491CE
:107360009FC18E3439F4E3E0F0E089E08093570068
:10737000849196C1813539F4E2E0F0E089E08093B0
:10738000570084918DC1823631F489E528DF80E091
:1073900026DF80E885C1823419F0873609F0E5C020
:1073A0001092CF011092CE0102DF082F00DFF82EDD
:1073B000FEDE682E8554823008F071C1902F80E087
:1073C000CF2DD0E0C82BD92B10926F00173609F0C3
:1073D0004BC081E180935700E895DD24CC24C39411
:1073E0003FC0E090D001F090D1010091D201109106
:1073F000D301B6E46B16D9F4ED2DF0E0EE29FF29A8
:10740000E4918E2FECDEDD2081F082E090E0A0E0C0
:10741000B0E0E80EF91E0A1F1B1FE092D001F092A7
:10742000D1010093D2011093D301DC2418C0D801FC
:10743000C701B695A7959795879549D5D0DE82E087
:1074400090E0A0E0B0E0E80EF91E0A1F1B1FE092DA
:10745000D001F092D1010093D2011093D301219772
:10746000209709F0BECF7DC08090D0019090D101CF
:10747000A090D201B090D30196E4691609F05DC0E6
:1074800083E0F40180935700E89507B600FCFDCF38
:1074900054C0F6E46F1661F5772031F1E090D00129
:1074A000F090D1010091D2011091D30180DED82E4D
:1074B000CC24852D90E08C299D29F7010C01409268
:1074C0005700E895112482E090E0A0E0B0E0E80EDB
:1074D000F91E0A1F1B1FE092D001F092D101009308
:1074E000D2011093D30102C062DE582E742423C04F
:1074F000E090D001F090D1010091D2011091D30120
:1075000016950795F794E79452DE682FC701E7D4E4
:107510008091D0019091D101A091D201B091D3017D
:107520000296A11DB11D8093D0019093D101A0932B
:10753000D201B093D301219704C055247724442469
:107540004394209709F0A5CF96E4691641F485E0AD
:10755000F40180935700E89507B600FCFDCF8DE05D
:107560003EDE82E080936F009CC0833471F4009112
:10757000D0011091D1011BDE90E021E0F8010C0157
:1075800020935700E89511247CCE833619F5E090BE
:10759000D001F090D1010091D2011091D30107DE0A
:1075A000F701E16090E021E00C0120935700E8959D
:1075B000112482E090E0A0E0B0E0E80EF91E0A1F7E
:1075C0001B1FE092D001F092D1010093D2011093E1
:1075D000D30157CE8D3661F4E091D001F091D10105
:1075E00085E080935700E89507B600FCFDCF49CEB3
:1075F000823551F4E091D001F091D10105911491BF
:10760000812FEDDD802F4CC0843421F5E090D00136
:10761000F090D1010091D2011091D30116950795F8
:10762000F794E794C4DD682FC70159D48091D00145
:107630009091D101A091D201B091D3010296A11DE8
:10764000B11D8093D0019093D101A093D201B0934A
:10765000D30117CE843609F5E090D001F090D10126
:107660000091D2011091D301D801C701B695A79519
:10767000979587952CD4B3DD82E090E0A0E0B0E050
:10768000E80EF91E0A1F1B1FE092D001F092D101F3
:107690000093D2011093D30104C08B3111F08FE31A
:1076A0009EDD83E08093E9009091E8008091E800FE
:1076B0008E778093E80095FF04C010C08EB38823B6
:1076C000C9F08091E80080FFF9CF8091E8008E77C3
:1076D0008093E80003C08EB3882361F08091E800B6
:1076E00080FFF9CF84E08093E9008091E8008B77F8
:1076F0008093E800DF91CF911F910F91FF90EF9061
:10770000DF90CF90BF90AF909F908F907F906F90C1
:107710005F904F9008959091D801892F8F77813293
:1077200049F58091D9018032A1F0813219F5913A61
:1077300009F58091E800877F8093E8008DE091E073
:1077400067E070E0FBD18091E8008B778093E800E0
:107750000895913279F48091E800877F8093E80062
:107760008DE091E067E070E04DD28091E8008E7787
:107770008093E800089582E061EC42E0A7D083E0C6
:1077800061E842E1A3D084E060E842E19FC084B7B1
:10779000877F84BF88E10FB6F894809360001092D1
:1077A00060000FBE20E880E090E00FB6F8942093D0
:1077B0006100809361000FBE81E085BF92E095BFBC
:1077C0003F9AE1E6F0E0208310824798109289000A
:1077D0008DE78093880090936F0083E08093810011
:1077E000E6C04091000850910108109201081092E3
:1077F000000824B714BE88E10FB6F89480936000A7
:10780000109260000FBEE0E0F0E0859194918F5FF0
:107810009F4F71F020FD0BC021FD0AC0283041F4BC
:107820008091090190910A014817590709F05ADC23
:10783000AEDF78941092CF011092CE010CC0EDDC37
:1078400034D38091CE019091CF018151974210F0B5
:107850001092140157DC80911401882381F78091E4
:10786000E00081608093E0003DDC80E090E00895DE
:10787000FA01923049F0933061F09130F9F485E1EA
:1078800091E022E130E01EC087E291E02EE330E09B
:1078900019C0882329F485E691E024E030E012C085
:1078A000813029F489E691E022E230E00BC0823099
:1078B00029F487E991E028E130E004C080E090E01D
:1078C00020E030E091838083C90108958093E9002E
:1078D0008091EB0081608093EB001092ED0060934B
:1078E000EC004093ED008091EE00881F8827881FF0
:1078F00008958091D80188238CF403C08EB3882327
:10790000B1F08091E80082FFF9CF8091E8008B7799
:107910008093E80008958EB3882349F08091E800B1
:1079200080FFF9CF8091E8008E778093E80008957A
:10793000EF92FF920F931F9345D04CD008ED10E0CB
:10794000F80180818F778083808180688083808147
:107950008F7D808319BC1EBA1092D60180EEE82E6E
:10796000F12CF70180818B7F8083F8018081816019
:10797000808380E060E042E0A9DFE1EEF0E080811A
:107980008E7F8083E2EEF0E0808181608083808161
:1079900088608083F70180818E7F8083F8018081F9
:1079A000806180831F910F91FF90EF900895E7ED24
:1079B000F0E08081816080838AE482BF81E08093EF
:1079C000D701B6CFE8EDF0E080818E7F8083109202
:1079D000E20008951092DA001092E10008951F92DB
:1079E0000F920FB60F9211242F933F934F935F93F3
